:020000040800F2
:10000000000900203902000827270008751D000894
:10001000252700084B040008152B000800000000ED
:100020000000000000000000000000002B27000876
:10003000E104000800000000292700082D2700081F
:10004000530200085302000853020008530200083C
:10005000530200085302000853020008530200082C
:10006000530200085302000853020008530200081C
:10007000530200085302000853020008530200080C
:100080005302000853020008530200080000000059
:100090000000000000000000000000005302000803
:1000A00053020008530200085302000853020008DC
:1000B000D127000853020008530200085302000829
:1000C00053020008530200085302000853020008BC
:1000D0005302000853020008530200080000000009
:1000E00053020008530200085302000800000000F9
:1000F00000000000000000000000000053020008A3
:1001000000000000530200085302000853020008D8
:1001100000000000000000000000000000000000DF
:10012000530200084D04000853020008530200085F
:100130005302000800000000000000000000000062
:100140000000000000000000000000005302000852
:10015000530200085904000853020008092B000844
:1001600053020008530200080000000000000000D5
:10017000000000000000000000000000000000007F
:100180000000000053020008000000000000000012
:10019000530200085302000800F002F800F03CF897
:1001A0000AA090E8000C82448344AAF10107DA45D2
:1001B00001D100F031F8AFF2090EBAE80F0013F0E8
:1001C000010F18BFFB1A43F001031847543D00000C
:1001D000743D0000103A24BF78C878C1FAD852079D
:1001E00024BF30C830C144BF04680C6070470000B1
:1001F0000023002400250026103A28BF78C1FBD830
:10020000520728BF30C148BF0B6070471FB503F0CD
:1002100021FE1FBD10B510BD00F0E2F81146FFF73A
:10022000F5FF03F009F800F000F903B4FFF7F2FF5F
:1002300003BC00F003F90000094880470948004763
:10024000FEE7FEE7FEE7FEE7FEE7FEE7FEE7FEE786
:10025000FEE7FEE704480549054A064B70470000E3
:10026000C1270008990100080003002000090020B0
:10027000000500200005002053EA020C00F0698010
:100280002DE9F04B4FF00006002B1FBFB3FA83F5AA
:1002900003FA05F424FA05F65E4012BF1643B2FADB
:1002A00082F502FA05F4C5F120051EBF22FA05FC0D
:1002B00044EA0C04203556EA044C4FEA144418BFB3
:1002C000641C4FF000084FF00009904271EB030CE2
:1002D00039D3002919BFB1FA81F701FA07F6B0FA4C
:1002E00080F700FA07F6C7F120071EBF20FA07FCC7
:1002F00046EA0C062037B6FBF4FCA7EB0507103FD7
:1003000007F01F0BCBF120060CFA0BFB2CFA06F6BC
:1003100044BFB3460026202FA4BF5E464FF0000B1B
:100320005BEA060C08BF4FF0010B19EB0B09ABFBA6
:10033000027C48EB0608C01B06FB02CC0BFB03CC7F
:1003400071EB0C01C1E70B46024641464846BDE849
:10035000F08B13B54FF000004FF00001AFF30080B9
:10036000BDE81C4070474FF0000200B513469446AC
:100370009646203922BFA0E80C50A0E80C50B1F1FD
:100380002001BFF4F7AF090728BFA0E80C5048BF11
:100390000CC05DF804EB890028BF40F8042B08BFAF
:1003A000704748BF20F8022B11F0804F18BF00F8AB
:1003B000012B704770477047704710B500F008F880
:1003C000006810BD10B5044600F002F8046010BDCE
:1003D00000487047A002002000487047A00200209B
:1003E0007546FFF7F9FFAE4605006946534620F013
:1003F0000700854618B020B5FFF72CFFBDE8204068
:100400004FF000064FF000074FF000084FF0000BD0
:1004100021F00701AC46ACE8C009ACE8C009ACE883
:10042000C009ACE8C0098D46704710B50446AFF36B
:1004300000802046BDE81040FFF7F7BE01491820B4
:10044000ABBEFEE7260002007047FEE7014800F061
:10045000A5B80000E0010020014800F09FB80000AE
:100460004002002001681823CAB2103AB2FBF3F22E
:10047000054B6FF30901032A9B5CC36500D9091D75
:1004800081650846704700005E3E000810B50146D1
:1004900000208B698A6A4FF0C07453B1B3F5005FD6
:1004A00015D072B1012A0CD0022A0AD0032A09D130
:1004B00004E01AB1012A06D0022A03D1C96AC9018F
:1004C00000D5012010BDC96AA142FAD010BD002A92
:1004D000F7D0012AF2D0022AF3D0032AF3D010BDBC
:1004E000704772B6FEE72DE9F0410446876D00F0D3
:1004F00091FA064694F835000025022806D080209F
:10050000606584F834500120BDE8F08120680168FE
:1005100021F0160101602068416921F080014161EC
:10052000206C08B9A06C20B12068016821F0080196
:1005300001602068016821F0010101600CE000F019
:1005400069FA801B052807D920206065032084F8FC
:10055000350084F83450D7E720680068C007EED132
:1005600094F85C103F208840B860012084F8350082
:1005700084F834500020C7E790F83510022903D0E2
:100580008021416501207047052180F83510006801
:10059000016821F001010160002070472DE9F84356
:1005A00004464FF00009CDF8009063484FF416510F
:1005B000A56D0068B0FBF1F72E6894F85C10082078
:1005C00000FA01F131420FD021680A6852070BD5B9
:1005D0000A6822F004020A6094F85C108840A8605F
:1005E000606D40F00100606594F85C104FF0010808
:1005F00008FA01F0304208D021684969090604D59B
:10060000A860606D40F00200606594F85C10042002
:100610008840304208D021680968890704D5A8605D
:10062000606D40F00400606594F85C101020884014
:10063000304218D021680968090714D5A8602068DD
:100640000168490304D50068000308D5A16C07E0E0
:100650000168C90503D4016821F008010160216C1B
:1006600009B12046884794F85C1020208840304229
:1006700031D021680968C9062DD5A86094F83500E5
:1006800005282068016806D0490347D500680003A3
:100690001DD4616C1CE021F01601016020684169E5
:1006A00021F080014161206C08B9A06C20B1206864
:1006B000016821F00801016094F85C103F20884037
:1006C000A86084F8358084F83490216D1FE0E16BD8
:1006D00009B120468847606D00282BD0606DC007A7
:1006E00014D0052084F835002068016821F001014C
:1006F00001600098401C0090B84203D82068006850
:10070000C007F6D184F8358084F83490E16C002974
:1007100010D001B02046BDE8F04308470168C90584
:10072000D5D4016821F01001016084F8358084F887
:100730003490CCE7BDE8F883A40000202DE9F04117
:10074000044600F067F906465CB1022084F83500E3
:10075000002584F834502068016821F0010101600F
:100760000DE00120BDE8F08100F054F9801B052860
:1007700005D920206065032084F83500F2E7206861
:100780000068C007F0D12268116820480140D4E910
:1007900001031843D4E9033633431843636918430C
:1007A000A3691843E3691843236A18430843616A3D
:1007B000042903D1D4E90B131943084310602068BE
:1007C0004069666A20F0070130460E43012704287D
:1007D0000CD1A06A0643E06A40B12046FFF756FEFE
:1007E00020B14020606584F83570BAE72068466122
:1007F0002046FFF737FE94F85C203F21914081604E
:10080000656584F835700020ACE700003F8010F08B
:1008100070B5044600F0FEF80546601C02D004489E
:100820000078044400F0F6F8401BA042FAD370BDF3
:10083000980000202DE9F84FDFF8B8A1002201242C
:1008400003254FF00F090AF1040BAAF1040E00BFB3
:100850000B6804FA02F63340B34273D10F7907F004
:100860000307012F01D0022F16D187684FEA4208F3
:1008700005FA08FC27EA0C07D1F80CC00CFA08FCB2
:100880004CEA070CC0F808C04768B7430E79C6F3B6
:10089000001696403E4346600E79F643B6070DD0EB
:1008A000C768560005FA06FC27EA0C07D1F808C00D
:1008B0000CFA06FC4CEA070CC0F80CC00E7906F0E6
:1008C0000306022E10D1D60800EB8608D8F8206067
:1008D00057074FEAD76C09FA0CF7BE430F6907FABE
:1008E0000CF73743C8F8207006684FEA420C05FA47
:1008F0000CF7BE430F7907F0030707FA0CF73743ED
:1009000007604E6816F4403F6DD03B4E376847F4A1
:1009100080473760366822F0030706F48046009669
:10092000364E07EB060CDCF8086897073F0F09FA0C
:1009300007F826EA0806DFF8C880404503D14FF0E3
:1009400000081EE04FE0DFF8BC80404502D14FF0C8
:10095000010816E0DFF8B080404502D14FF00208F0
:100960000FE0DFF8A880404502D14FF0030808E00F
:10097000DFF89C80404502D14FF0040801E04FF0C1
:10098000070808FA07F848EA0608CCF80888DAF8F1
:1009900000605746D1F804C09E435FEACC2C00D5D6
:1009A0001E433E60DBF800605F46D1F804C09E4302
:1009B0005FEA8C2C00D51E433E60DEF8006077466F
:1009C000D1F804C09E435FEA8C3C00D51E433E60D4
:1009D000084F083F3E68D1F804C09E435FEACC3C14
:1009E00000D51E433E60521C102AFFF431AFBDE813
:1009F000F88F0000083C01404438024000300140BC
:100A0000000002400004024000080240000C0240C6
:100A100000100240014880687047000098000020E4
:100A200070B5040025D094F83D00002520B984F865
:100A30003C50204600F04CFA242084F83D00206809
:100A4000016821F0010101602068016841F4004162
:100A500001602068016821F40041016000F0A0FB02
:100A60004D4A6168914201D84C4900E04C498842A6
:100A700001D2012070BD4B492368B0FBF1F15E68E3
:100A800026F03F060E435E606368934206D94FF43A
:100A9000967359434FF47A73B1FBF3F12368491C01
:100AA0001E6A26F03F06314319626168914210D8F0
:100AB0004900401EB0FBF1F2521CC2F30B02042AA3
:100AC00001D2042022E0B0FBF1F0401CC0F30B0087
:100AD0001CE0A268F2B301EBC10303EB0116431E55
:100AE000B3FBF6F35B1C43F480431B0549D092B380
:100AF00001EBC10202EB0111401EB0FBF1F0401C02
:100B0000C0F30B0040F4804040F400402168CA6903
:100B10004CF6FF739A431043C861D4E907100143B0
:100B20002068026822F0C00211430160D4E9030189
:100B300001432068826848F2FF339A431143816081
:100B4000D4E9050108432168CA6822F0FF02104376
:100B5000C86001E00EE016E02068016841F0010184
:100B600001602564202084F83D00256384F83E5010
:100B7000002070BD01EB4106431EB3FBF6F35B1C86
:100B8000B3E70120C2E701EB4101401EB0FBF1F0E9
:100B9000401CC0F30B00B7E7A086010080841E0054
:100BA00000093D0040420F002DE9FF4F83B09A46F7
:100BB000DDE9119793460446DDF84080FFF72AFFF0
:100BC000054694F83D00202870D11923012271496F
:100BD0002046009501F0DEF90028F5D194F83C009C
:100BE000012863D0012084F83C0020680168C9070F
:100BF00003D1016841F0010101602068016821F41E
:100C000000610160222084F83D00402084F83E000D
:100C100000262664C4F82480A4F82A90608D2085DC
:100C20005D48E062CDE9007553465A462046049976
:100C300001F0B8F800287CD1208DD0B1012821D056
:100C40000228206824D0416980690090208D032803
:100C500069D801282BD0514902283B464FF00002A9
:100C6000009559D08846204601F094F9002860D1BB
:100C70003CE02068416981690091016841F400719C
:100C8000016077E02068016821F480610160F0E78D
:100C9000016821F4806101602068016841F400610D
:100CA0000160206841698069009063E06FE02A4636
:100CB0003946204601F0EDF998BB20680069616A69
:100CC00008704EE02068016841F4007101602068FE
:100CD0000069616A0870606A401C6062218D491E6B
:100CE0002185618D491E6185216838E02068016891
:100CF00021F48061016020680069616A0870606A9F
:100D0000401C6062208D401E2085608D401E6085E5
:100D10003B46002241460095204601F03BF900B9D0
:100D2000D0E706E0FFE72A463946204601F0B1F950
:100D300018B1012007B0BDE8F08F20680069616A32
:100D40000870606A401C6062218D491E2185618D9A
:100D5000491E618521684A69D24352070AD409694C
:100D60000170606A401C6062208D401E2085608D8D
:100D7000401E6085208D00287FF468AF202084F815
:100D80003D0084F83E6084F83C600020D2E70220F9
:100D9000D0E70000020010000000FFFF0400010087
:100DA0002DE9FF4F83B09A46DDE91197934604463B
:100DB000DDF84080FFF72EFE054694F83D00202820
:100DC0007FD11923012240492046009501F0E2F825
:100DD000002876D194F83C00012872D0012084F8D4
:100DE0003C0020680168C90703D1016841F0010196
:100DF00001602068016821F400610160212084F80D
:100E00003D00402084F83E0000262664C4F824807B
:100E1000A4F82A90608D20852C48E062CDE9007509
:100E200053465A462046049901F03AF870B930E02A
:100E30002A463946204601F05FF958B1206C042853
:100E400004D12068016841F400710160012007B0FD
:100E5000BDE8F08F606A216800780861606A401C14
:100E60006062218D491E89B22185628D521E628584
:100E700022685369DB435B070BD469B100781061CA
:100E8000606A401C6062208D401E2085608D401E7F
:100E90006085208D0028CBD12A463946204601F0B6
:100EA00053F80028CAD154F83D0B016841F4007191
:100EB0000160202004F81E09E67766770020C6E767
:100EC000FFE70220C3E70000020010000000FFFF60
:100ED00010B586B0044614216846FFF744FA13495A
:100EE0002068884220D112480021026842F00202A4
:100EF0000260006800F002000590C02000901220FF
:100F0000CDE90101032003900420049069460948BB
:100F1000FFF790FC06481030016841F400110160B1
:100F2000006800F40010059006B010BD00540040A9
:100F300030380240000402400248816802781144BF
:100F400081607047980000200B4810B5016841F49B
:100F500000710160016841F480610160016841F441
:100F600080710160032000F06FF80F2000F006F898
:100F700000F024F8002010BD003C024070B50D4D7B
:100F800004464FF47A712878B1FBF0F00A490968F9
:100F9000B1FBF0F000F00CFB48B9102C07D2002296
:100FA0002146501E00F030F800206C6070BD01201A
:100FB00070BD000098000020A40000200A4808B579
:100FC000016841F480410160006800F480400090B5
:100FD0000548001F016841F080510160006800F081
:100FE0008050009008BD000044380240002809DB12
:100FF00000F01F02012191404009800000F1E02033
:10100000C0F8001170470000F0B40E4B1B680C468E
:10101000C3F30223C3F10705042D00D90425191DCC
:10102000072901D2002300E0DB1E012606FA05F1A4
:10103000491E214099409E40761E16403143F0BC27
:1010400001F081BD0CED00E0064900F007020868E0
:101050004FF6FF03184040EA0220034A104308609D
:10106000704700000CED00E00000FA052DE9F047A4
:101070000E46050065D0DFF81481D8F80000F7B2FD
:1010800000F00700B04207D288F80070D8F80000DE
:1010900000F00700B04254D128683D4C810712D5BA
:1010A000400703D5206840F4E0502060287800070E
:1010B00003D5206840F4604020602068A96820F0D3
:1010C000F000084320602878C0072DD030496868B8
:1010D0000839012812D0022813D0032811D009683A
:1010E000890700292DDA216821F0030101432160DD
:1010F000FFF790FC814641F2883A0EE009688903C7
:10110000EFE709688901ECE7FFF784FCA0EB090130
:10111000514502D90320BDE8F0872068696800F0D6
:101120000C00B0EB810FEFD1D8F80010404601F071
:101130000701B14207D90770006800F00700B0420C
:1011400001D00120E7E72878400705D52068E96845
:1011500020F4E050084320602878000706D5206876
:10116000296920F4604040EAC100206000F038F8AE
:101170002168084AC1F30311515CC8400649086060
:1011800006480068FFF7FAFE0020C4E7003C024072
:1011900008380240663E0008A40000209C000020A1
:1011A0000448054900680968044AC1F38221515C7A
:1011B000C8407047A400002008380240763E00086E
:1011C0000448054900680968044AC1F34231515C8A
:1011D000C8407047A400002008380240763E00084E
:1011E000154810B5006810F00C02144813D01449CB
:1011F000042A0FD0082A0ED10F4C241F226823681E
:1012000002F03F025B0207D52068C0F38810A0FB04
:10121000010106E0084610BD2168C1F38811A1FB59
:1012200000010023FFF728F82168C1F30141491CA0
:101230004900B0FBF1F010BD083802400024F40072
:1012400040787D012DE9F84F04006ED02078DFF85A
:101250004C93C007A9F104054AD009F104000168C4
:10126000C1F38101012908D00068C0F38100022880
:101270000AD1D9F80000400206D52868800337D586
:1012800060680028E1D033E06068B0F5803F10D09E
:10129000B0F5A02F286810D020F48030286028688E
:1012A00020F4802028606068A8B1FFF7B3FB0646F1
:1012B0000DE0286840F48030F4E740F48020286096
:1012C000F7E700BFFFF7A6FB801B642873D82868E8
:1012D0008003F7D50CE0FFF79DFB064605E000BF55
:1012E000FFF798FB801B6428F0D828688003F7D4A8
:1012F0002078DFF8AC8280074FF0000A3ED5A7487F
:10130000001D016811F00C0F08D00068C0F38100C7
:1013100002280BD1D9F80000400207D428688007C2
:1013200016D5E068012800D112E033E1E068B8B1D9
:101330000120C8F80000FFF76DFB064605E000BF7E
:10134000FFF768FB801B0228C0D828688007F7D504
:101350002868216920F0F80040EAC10028600DE00B
:10136000C8F800A0FFF756FB064604E0FFF752FB63
:10137000801B02281FD828688007F7D42078000730
:1013800022D5864F87486169703771B101210160AC
:10139000FFF740FB064604E0FFF73CFB801B0228FA
:1013A00009D838688007F7D50EE0C0F800A0FFF72D
:1013B00031FB064605E082E0FFF72CFB801B02288C
:1013C0007DD838688007F7D42078400768D5DFF8E3
:1013D000CCB100270BF13C0BDBF80000C0000BD4B4
:1013E000DBF8001041F08051CBF80010DBF8000072
:1013F000012700F0805000906B4E3068C00510D47B
:10140000306840F480703060FFF704FB009005E026
:10141000FFF700FB0099401A022850D83068C00539
:10142000F6D55E4EA0686C3601280FD005283068CE
:1014300010D020F001003060306820F004003060EF
:10144000A068B8B1FFF7E6FA00900FE0306840F00E
:101450000100F4E740F004003060F7E7FFF7DAFA44
:101460000099411A41F28830814266D8306880077D
:10147000F4D50EE0FFF7CEFA009007E0FFF7CAFAC6
:101480000099411A41F28830814256D8306880076D
:10149000F4D42FB1DBF8001021F08051CBF800100C
:1014A000A069C8B33D49091D0968C1F3810102293A
:1014B0004AD00228504607D0C8F8600000E03CE05F
:1014C000FFF7A8FA04463BE04746C8F86000FFF77C
:1014D000A1FA064605E000BFFFF79CFA801B022830
:1014E0002BD828688001F7D4D4E907010843A16A02
:1014F0002E4A490802EB0141626A41EA821108431F
:1015000094F82C1040EA0161C9F8001001203866F7
:10151000FFF780FA044606E03EE000BFFFF77AFAE4
:10152000001B022809D828688001F7D534E000BFE5
:10153000FFF770FA001B022802D90320BDE8F88FDC
:1015400028688001F4D427E00128F7D0D9F80000FA
:10155000E26900F4800191421CD1226A00F03F014F
:10156000914217D147F6C071626A0140B1EB821F08
:1015700010D1A26A4FF0FF3300F4403103EB520266
:10158000B1EB024F06D194F82C1000F07060B0EB74
:10159000016F01D00120D1E70020CFE704380240DD
:1015A00000004742800E4742007000400000FFFFED
:1015B00010B5401EB0F1807F01D3012010BD4FF067
:1015C000E02460610F21601701F0BDFA0020A061E6
:1015D00007202061002010BD7047704770B590F85B
:1015E0003C20012A2CD0012480F83C40022280F8C3
:1015F0003D2003685A689D6822F070060A683243ED
:101600005A60104B02689A420ED0B2F1804F0BD054
:101610000D4B9A4208D00D4B9A4205D00C4B9A4282
:1016200002D00C4B9A4204D1496825F0800319433B
:10163000916080F83D40002180F83C10084670BD64
:10164000022070BD0000014000040040000800407E
:10165000000C00400040014010B5040003D094F895
:101660003D0010B107E0012010BD002084F83C00CF
:10167000204600F01FF8022084F83D00211D20685C
:1016800001F0ACF8012084F8460084F83E0084F8AC
:101690003F0084F8400084F8410084F8420084F858
:1016A000430084F8440084F8450084F83D0000209D
:1016B00010BD000008B50068B0F1804F12D10A4893
:1016C000016841F0010101600068002200F00100A2
:1016D000009011461C20FFF797FCBDE808401C2035
:1016E000FFF784BC08BD00004038024090F83D1070
:1016F000012901D001207047022180F83D100168C6
:10170000CA6842F00102CA6000680E4988420ED0E1
:10171000B0F1804F0BD00C49884208D00B49884269
:1017200005D00B49884202D00A49884204D1816819
:1017300001F00701062903D0016841F001010160B1
:1017400000207047000001400004004000080040F5
:10175000000C00400040014070B5044690F83C0089
:101760000025012817D0012684F83C60022084F867
:101770003D002068826822F0770222F47F42826076
:101780000868502838D00DDC20284FD005DC90B3F5
:10179000102811D14AE0022070BD302846D04028E0
:1017A0000AD13BE060282FD070280DD0B0F5805FC3
:1017B00003D0B0F5005F12D0012584F83D60002011
:1017C00084F83C00284670BDCB68D1E9012120682F
:1017D00001F050F82068816841F0770109E0CB689A
:1017E000D1E90121206801F045F82068816841F4C1
:1017F00080418160E1E719E0CA684968206801F02A
:101800004BF85021206806E0CA684968206801F05A
:1018100054F86021206801F037F8CEE7CA684968BB
:10182000206801F039F840212068F4E72268014679
:101830001046F0E7704770B50446006801694FF044
:101840000005C943890715D4C168C943890711D464
:10185000E91E016101202077206880698007204609
:1018600002D0FFF7E7FF04E000F098F8204600F010
:1018700096F8257720680169C943490717D4C168DC
:10188000C943490713D46FF0040101610220207796
:101890002068806910F4407F204602D0FFF7CAFF1D
:1018A00004E000F07BF8204600F079F82577206806
:1018B0000169C943090716D4C168C943090712D48D
:1018C0006FF008010161042020772068C06980075B
:1018D000204602D0FFF7AEFF04E000F05FF820469C
:1018E00000F05DF8257720680169C943C90617D45F
:1018F000C168C943C90613D46FF010010161082003
:1019000020772068C06910F4407F204602D0FFF79E
:1019100091FF04E000F042F8204600F040F82577FF
:1019200020680169C943C90708D1C168C943C9070B
:1019300004D1891E0161204600F032F82068016957
:10194000C943090609D4C168C943090605D46FF023
:10195000800101612046FFF73FFE20680169C9430D
:10196000490609D4C168C943490605D46FF040014E
:101970000161204600F01EF820680169C94389060C
:101980000BD4C168C943890607D46FF020010161F7
:101990002046BDE87040FFF720BE70BD704770471D
:1019A0000068B0F1804F02D1014800F0FDBC7047E3
:1019B000A80000207047704770470000F8B5016824
:1019C00004460868CA684B6910F00F0F4FF0000515
:1019D00059D003F0010602F49077374365D0C10770
:1019E00005D0D10503D5216C41F0010121644107E7
:1019F00005D5D90703D0216C41F00201216481078C
:101A000005D5D90703D0216C41F0040121640107F9
:101A100007D502F02001314303D0216C41F00801C9
:101A20002164216C00293AD0800604D5900602D5A5
:101A3000204600F083FF20684069216CC0F38010CD
:101A4000090700D460B3204600F051FF20684069C8
:101A5000400621D52068143050E8001F21F04001D5
:101A600040E80012002AF5D1A06BA8B16C490165CD
:101A7000A06BFEF781FD002811D0A06B016D01B0B5
:101A8000BDE8F040084783060FD593060DD52046E4
:101A9000BDE8F84000F052BF2046FFF78DFFF8BDCB
:101AA0002046FFF789FF2564F8BD266B2023012E11
:101AB00079D1C60677D5D60675D5086848680090EE
:101AC0004869400640D5A16B086840680004000CD6
:101AD000EAD0A28D8242E7D9E085C869B0F5807F5F
:101AE0002DD020680C3050E8001F21F4807140E8B0
:101AF0000012002AF5D12068143050E8001F21F0B0
:101B0000010140E80012002AF5D12068143050E8A5
:101B1000001F21F0400140E80012002AF5D184F8AE
:101B20003E30256320680C3050E8001F21F0100182
:101B300040E80012002AF5D1A06BFEF7D4FCA08D7E
:101B4000E18D401A81B229E0A08DE18D401A81B269
:101B5000E08D0028A8D00029A6D020680C3050E8DD
:101B6000002F22F4907240E80026002EF5D1206864
:101B7000143050E8002F22F0010240E80026002E29
:101B8000F5D184F83E30256320680C3050E8002FF2
:101B900022F0100240E80023002BF5D12046FFF789
:101BA0000AFFF8BDFFE705062BD5150629D594F8E1
:101BB0003D002128F5D1A068B0F5805F01D12069F2
:101BC000B0B1206A411C2162216800784860E08C35
:101BD000401E0004000CE084E3D12068C16821F0BD
:101BE0008001C1602068C16841F04001C160D8E750
:101BF000206A0088C0F308004860206A801C2062C8
:101C0000E5E74006CDD55006CBD5CA68204622F080
:101C10004002CA6084F83D3000F0ABF8C1E7000034
:101C2000DF28000870B5040004D094F83D000025BA
:101C300010B106E0012070BD84F83C50204600F051
:101C400023F8242084F83D002068C16821F4005165
:101C5000C160204600F0D2FE2068016921F4904165
:101C600001612068416921F02A0141612068C16851
:101C700041F40051C1602564202084F83D0084F8BF
:101C80003E00002070BD00002DE9F04387B00646FD
:101C900014216846FEF767FB2F493068884258D107
:101CA0002E480025016841F020010160006800F025
:101CB0002000059029481438016841F004010160B2
:101CC0000068694600F004000590C02000900220E2
:101CD000CDE9010503200390082004902048FEF779
:101CE000A9FD214C1F484FF4806887052060C4E996
:101CF0000175C4E9035880156561C4E906504FF4C5
:101D00008039C4E908952046FEF718FD08B1FEF7B2
:101D1000E8FBB463A6631348144C7830E4E8020788
:101D20004020A4E82101114844F81459A561C4E9F0
:101D300007596562FEF702FD08B1FEF7D2FB746336
:101D4000002211464720A663FFF75EF94720FFF700
:101D50004DF907B0BDE8F08300140140443802405B
:101D60000008024028640240E001002040020020F8
:101D700070477047FEE701684A69D24352050FD4A5
:101D80006FF480624A61002140F8301F20224273C4
:101D90008173026942F004020261017301207047FD
:101DA000002070472DE9F84F0446006889460B9DD6
:101DB00001689846174641F4806101602068016817
:101DC00041F48071016000954FF0011B00225946DB
:101DD00020460A9B00F0DEF84FF4007A40B12068FC
:101DE0000068C00501D5C4F840A00320BDE8F88F05
:101DF000216809F0FE0008612B46284920460A9A0E
:101E000000F0FCF8F0BB20684169806900902A4628
:101E100020460A9900F070F940B1206C04283AD1AC
:101E20002068016841F40071016034E0FEB2B8F14D
:101E3000010F09D02168380A08612A4620460A990C
:101E400000F05AF90028E8D1206806612A462046A9
:101E50000A9900F051F90028DFD12068016841F4A7
:101E60008071016000950022594620460A9B00F0CF
:101E700091F80028B3D1216809F0FF0040F001007B
:101E8000086100E007E02B46044920460A9A00F06A
:101E9000B5F80028AAD00120A8E700000200010040
:101EA0002DE9F843044600680D46DDE9089701680E
:101EB0009846164641F4807101604B4600224FF06F
:101EC00001112046009700F065F848B120680068CD
:101ED000C00502D54FF4007020640320BDE8F883EC
:101EE000216805F0FE0008613B464A461549204638
:101EF00000F084F888B920684169806900903A460A
:101F00004946204600F0F8F848B1206C042804D176
:101F10002068016841F4007101600120DEE7F5B23C
:101F2000B8F1010F09D02168300A08613A464946E4
:101F3000204600F0E1F80028E7D120680561002084
:101F4000CCE700000200010070B516460D460446BD
:101F50000DE02046FFF70FFF08B1012070BD681C9F
:101F600005D0FEF757FD801BA84207D835B1206881
:101F70004069C0434007ECD4002070BD002044F805
:101F8000300F20216173A073216941F0200121618C
:101F90002073E2E72DE9F0471E4690460D460446C1
:101FA000C1F30747DDF8209008E0701C06D0FEF76B
:101FB00031FDA0EB0900B0420FD876B12068012FA7
:101FC00018D0806925EA00000004000C14D000211C
:101FD0004145EAD00020BDE8F087002044F8300FEA
:101FE00020216173A073216941F0200121612073D8
:101FF0000120F0E74069E5E70121E9E72DE9F04735
:102000009A4691460E46044600254FF02008C1F33B
:10201000074725E020684069C043400514D4206884
:10202000016841F40071016021686FF480604861CB
:10203000256384F83D8084F83E50206C40F0040015
:10204000206484F83C501FE0B9F1FF3F08D0FEF750
:10205000E1FCA0EB0A0149450CD8B9F1000F09D009
:102060002068012F13D0806926EA00000004000CCC
:102070000BD0CFE744F8305F84F80D80A57320695A
:1020800040F02000206125730120BDE8F087406901
:10209000EAE72DE9F041002590460E460446202748
:1020A00017E04069C043C0060CD454F8301B6FF0F1
:1020B0001000486144F810596777A577206A2062BC
:1020C000257717E0FEF7A6FCA0EB0800B04208D881
:1020D0003EB120684169C9434906E2D40020BDE809
:1020E000F08144F8305F6773A573206940F02000E9
:1020F000206125730120F2E770B516460D460446AF
:102100000DE02046FFF737FE08B1012070BD681CC6
:1021100005D0FEF77FFC801BA84207D835B12068A8
:102120004069C0430006ECD4002070BD002044F894
:10213000300F20216173A073216941F020012161DA
:102140002073E2E770B504462DED108B82B0B0EE3F
:10215000429AF0EE629AB0EE40FAF0EE60FA90ED3C
:1021600008EB51EC110B53EC1E2B01F089FD41ECF7
:10217000100B51EC190B53EC102B01F075FB94ED87
:10218000061B53EC112B01F0C1F894ED10DB41EC70
:102190001A0B53EC1D2B51EC190B01F065FB0E468D
:1021A00046EC100B94ED0CCB054653EC1C2B51EC7C
:1021B000100B01F065FD94ED0EBB53EC1B2B01F0F1
:1021C0005FFD94ED001B53EC112B01F09FF853ECD5
:1021D000192B01F049FB94ED0A1B53EC112B01F074
:1021E00095F846EC105B41EC180B53EC1C2B51ECB2
:1021F000100B01F06DFC46EC105B41EC1C0B53EC3A
:102200001B2B51EC100B01F063FC94ED020B41EC25
:102210001B0B53EC192B51EC100B01F025FB53EC6D
:102220001D2B01F073F841EC100B51EC180B8DEDE8
:10223000000B94ED040B53EC102B01F067F841EC0C
:10224000190B51EC180B53EC192B01F013F941EC5D
:102250001D0B53EC192B51EC1B0B01F00BF941EC4E
:10226000190B53EC1A2B51EC1F0B01F009FD41EC3B
:102270001F0B51EC1D0B53EC1F2B01F0F5FA53EC27
:102280001A2B01F043F841EC1A0B53EC1F2B84ED91
:1022900006AB51EC190B01F0E7FA53EC1E2B01F0E1
:1022A00035F8C4E9080153EC182B51EC1D0B01F073
:1022B000DBFA53EC182B01F00BFCC4E90A0153ECD8
:1022C0001C2B51EC1D0B01F0CFFA53EC1C2B01F031
:1022D000FFFBC4E90C0153EC182B51EC190B01F076
:1022E000C3FA53EC1B2B01F0F3FBC4E90E0153ECD2
:1022F0001C2B51EC190B01F0B7FA9DED000B53ECC0
:10230000102B01F0E5FBC4E9100102B0B0EE4A0A5F
:10231000F0EE6A0ABDEC108B70BD0000F0B585B020
:10232000012504A8CDE9000564242B467522D0219F
:1023300002941C48FEF738FC9DF8100068282ED146
:10234000002703AE8DF80C700096CDE901540123EF
:102350006B22D0211348FEF723FD07208DF80C00D7
:102360000096CDE9015401231922D0210D48FEF732
:1023700017FD8DF80C700096CDE9015401231C2245
:10238000D0210848FEF70CFD8DF80C700096CDE9C1
:10239000015401231B22D0210248FEF701FD05B0A4
:1023A000F0BD0000000100202DE9F04704462DEDAE
:1023B0000C8B88B09FED9A9B9FED9BDB9FED9CCB98
:1023C0009FED9DAB64220E2103A88DE80700012339
:1023D0003B22D0219A48FEF7E7FBBDF80C0040BA3B
:1023E00000B22080BDF80E1049BA0EB26680BDF86A
:1023F000101049BA0DB2A580BDF8121049BA0FFAF3
:1024000081FABDF8141049BA0FB22784BDF816102E
:1024100049BA09B261848946BDF8181049BA09B2AF
:10242000A184884601F0BAF99FED868B53EC182BF6
:1024300001F01AFAC4E90201304601F0AFF953EC99
:10244000182B01F011FAC4E90401284601F0A6F99D
:102450009FED7E1B53EC112B01F00CF800EE10AA3F
:10246000B8EEC00A9FED7B1AC0EE010A9FED7A0A12
:10247000C4E90601384630EE800A84ED100A01F006
:102480008DF99FED768B53EC182B00F0F3FFC4E928
:102490000A01484601F082F953EC182B00F0EAFFDC
:1024A000C4E90C01404601F079F953EC182B00F017
:1024B000E1FFC4E90E01FEF7ADFA6A4D2968401A42
:1024C00001F083F99FED681B53EC112B00F0D2FF54
:1024D00041EC1B0BFEF79EFA2860208810FB00F1F0
:1024E000A08810FB001001F059F941EC100B00F02E
:1024F000B1FDB0EE408AF0EE608A53EC192B51EC3E
:10250000180B01F00FF913D0B4F9020001F046F9ED
:1025100053EC182B00F0AEFF41EC100B00F024FB45
:1025200053EC1D2B51EC100B01F09EF941EC190BF3
:10253000B4F9040001F032F941EC180BB4F90000D1
:10254000404201F02BF941EC100BB0EE481AF0EECE
:10255000681A00F075FC53EC1D2B51EC100B01F0C8
:1025600083F941EC180B53EC1C2B01F041F908D214
:1025700094ED140B53EC1A2B51EC100B01F072FA82
:102580000FD353EC1A2B51EC180B01F06BFA11D24C
:1025900094ED140B53EC1C2B51EC100B01F028F9AB
:1025A00008D23048503080ED068B84ED148B94EDCA
:1025B000140B0FE02B4894ED0C1BB0EE4B2AF0EE01
:1025C0006B2AB0EE480AF0EE680A5030FFF7BAFD09
:1025D00084ED140B00F034FD53EC1A2B51EC100B6E
:1025E00001F040FA07D294ED0A0B51EC100B00F009
:1025F00081FEC4E90A011B4894ED0A1BB0EE4B2A88
:10260000F0EE6B2AB0EE490AF0EE690A0830FFF7E7
:1026100099FD84ED120B08B0BDEC0C8BBDE8F08782
:102620000000000000000000F8C1631ADCA54C4067
:1026300000000000008056C00000000000805640EE
:1026400000010020000000000000103F000000001A
:102650000029CC400000AA43B81E1242000000002E
:1026600000606040000000200000000000408F403B
:10267000114808B5016841F080010160016801F06E
:1026800080010091016841F004010160016801F0DE
:1026900004010091016841F001010160016801F04D
:1026A00001010091016841F002010160006800F041
:1026B0000200009008BD00003038024010B586B01E
:1026C00000241748009401940294039404944FF05A
:1026D0008041059401606321C0E9011442F20F7149
:1026E000C0E9031480218161FEF7B6FF08B172B61C
:1026F000FEE74FF48050009069460948FFF72CF838
:1027000008B172B6FEE7049404A905480594FEF7E3
:1027100065FF002801D072B6FEE706B010BD0000CC
:1027200054010020FEE7FEE770477047FEF704BC47
:1027300030B593B030216846FDF715FE14210CA882
:10274000FDF711FE1C480025016841F08051016031
:10275000006800F0805011901848016841F4404131
:1027600001600068022400F44040119001200090B4
:10277000000401908001CDE906400C200890602003
:10278000CDE9090404200B906846FEF75BFD08B113
:1027900072B6FEE70CA90F2081E831004FF480509B
:1027A000CDE90F0503210CA8FEF760FC002801D03D
:1027B00072B6FEE713B030BD4038024000700040F2
:1027C0000248016841F470010160704788ED00E043
:1027D0000148FFF730B8000054010020F0B502684E
:1027E0001D4B1E4C9F031E4D1E4E984207D0B842F3
:1027F00005D0A04203D0A84201D0B04204D122F0BB
:10280000700C4A6842EA0C02984210D0B8420ED0CE
:10281000A0420CD0A8420AD0B04208D0124CA0422C
:1028200005D0124CA04202D0114CA04203D122F498
:102830004074CA6822434C6922F08002224302603D
:102840008A68C2620A688262984201D1096901639A
:1028500001214161F0BD0000000001400004004082
:1028600000080040000C00400040014000440140CE
:102870000048014010B5846842EA032224F47F44F2
:102880000A432243826010BD826822F070020A432C
:1028900042F007018160704710B5036A046A24F0B2
:1028A00001040462846924F0F00444EA021423F071
:1028B0000A020A438461026210BD10B5036A23F064
:1028C000100303628369046A23F4704343EA02320B
:1028D00024F0A00343EA01118261016210BD10B52A
:1028E000806B0021C185C184FFF766F810BD0168C7
:1028F0000C3151E8002F22F4907241E80023002BA4
:10290000F5D10168143151E8002F22F0010241E8AD
:102910000023002BF5D1016B012909D101680C318D
:1029200051E8002F22F0100241E80023002BF5D1DE
:10293000202180F83E1000210163704708B590F80F
:102940003E10222901D0022008BD82684FF4805336
:102950009A4201D1016921B1816A9A421BD04AB1E0
:102960000AE00268816A5268C2F308020A80816A3A
:10297000891C08E0026972B10268526802F07F02A5
:102980000A70816A491C8162C18D491E0904090CC3
:10299000C18503D019E002685268F1E70168CA688E
:1029A00022F02002CA600168CA6822F48072CA60FC
:1029B00001684A6922F001024A61202180F83E1034
:1029C000016B012903D0FFF7D3F9002008BD0021D6
:1029D000016301680C3151E8002F22F0100241E838
:1029E0000023002BF5D101680A68D20602D50A68D7
:1029F00049680091818DFEF7DEFFE6E770B5044679
:102A000000680169E26821F44051114301612169C4
:102A1000A068E26908436169114308432168CA68F4
:102A200049F20C639A430243CA6020684169A26973
:102A300021F440711143416131492068884202D03C
:102A40003049884202D1FEF7BBFB01E0FEF7A8FB4C
:102A5000E2690023192164253226B2F5004F62682D
:102A600028D0A0FB0101930F9200FDF705FC014661
:102A7000B0FBF5F06FF01802504301EB800006EB5D
:102A80000010B0FBF5F000F0F002B1FBF5F002EB46
:102A90000012B1FBF5F06FF01803584301EB800012
:102AA00006EB0010B0FBF5F000F00F0021681044B9
:102AB000886070BDA0FB010192185B41FDF7DCFB53
:102AC0000146B0FBF5F00201B1FBF5F06FF0180321
:102AD000584301EB800006EBC000B0FBF5F000F0BE
:102AE000F80002EB4002B1FBF5F0584301EB800027
:102AF00006EBC000B0FBF5F000F00700D6E70000E1
:102B000000100140001401400148FEF757BF0000CB
:102B10009C010020FEE703B401984100009850EAB0
:102B2000C12018BF04204A0D18BF40F0010040F238
:102B3000FF72B2EB515F08BF40F00200012808BFEE
:102B4000052002B070470907090E002804DB00F1D8
:102B5000E02080F80014704700F00F0000F1E02042
:102B600080F8141D7047000070B59B482DED020BD6
:102B70002DED068B079D25F00044A04218DC9748F8
:102B8000844202DC0AD1069840B19DED060BBDECF3
:102B9000068B02B0BDE8704000F015BB002DCCBF25
:102BA0009FED8F0B9FED900BBDEC068B02B070BDBF
:102BB0008F48A04215DD8F48A042D8BF4FF0FF34A8
:102BC00058DD9DED060B51EC100BFFF7A4FF042818
:102BD00008BF00F00DFB9DED060BBDEC068B02B0AF
:102BE00070BD9DED060B51EC100B00F019FBCDE90B
:102BF000060181489FED828BA0423CDD8248A042C5
:102C00001FDD00249FED82AB9DED060B53EC1A2BCC
:102C100051EC100B00F07AFB9DED060B41EC190B0B
:102C200053EC1A2B51EC100B00F01EFE53EC182B3A
:102C300001F026F853EC192B00F01CFCCDE906013D
:102C400049E09DED060B012453EC182B51EC100BC1
:102C500000F05CFB9DED060B41EC190B53EC182BBF
:102C600051EC100B01F00CF853EC192B00F002FCA6
:102C7000CDE906012FE06848A0421FDD02249FED48
:102C8000689B9DED060B53EC192B51EC100B00F0DB
:102C9000EBFD53EC182B00F039FB9DED060B41ECDE
:102CA000180B53EC192B51EC100B00F0E9FF53EC0F
:102CB000182B00F0DFFBCDE906010CE09DED060BC3
:102CC000032453EC102B9FED580B51EC100B00F02C
:102CD000D1FBCDE906019DED060B53EC102B51EC19
:102CE000100B00F0C1FD41EC180B53EC182B00F059
:102CF000BBFD41EC190B4E480621B0EE490AF0EE3F
:102D0000690A784400F0E3F953EC182B51EC100BEE
:102D100000F0AAFD41EC180B4648B0EE490AF0EE6F
:102D2000690A0521784400F0D2F953EC192B51ECD3
:102D3000100B00F099FD41EC100B51EC180B53EC0B
:102D4000102B002C0EDA00F0E1FA9DED061B53EC7F
:102D5000112B00F089FD9DED061B53EC112B00F0AB
:102D6000B7FE35E000F0D2FA9DED061B53EC112BB7
:102D700000F07AFD41EC100B2F48784400EBC400C2
:102D800090ED001B51EC100B53EC112B00F078FF71
:102D90009DED061B53EC112B00F072FF41EC100B64
:102DA0002648784400EBC40090ED001B51EC100B5A
:102DB00053EC112B00F08CFE41EC100B002DA2BF48
:102DC000BDEC068B02B070BD51EC100B00F092FA16
:102DD00041EC100B01E70000000010440000F07F00
:102DE000182D4454FB21F93F182D4454FB21F9BF01
:102DF0000000DC3F0000203E0000F33F0000000028
:102E0000000000000000F03F0000E63F000000006E
:102E100000000000000000400080034000000000AF
:102E2000000000000000F83F000000000000F0BFBC
:102E3000E21100009811000022110000DA100000D9
:102E400070B56F4E2DED040B2DED048B82B0DDF8C7
:102E500024C0DDE907235C422CF000411C4341EA19
:102E6000D474069D22F00040B44205D86C422C4335
:102E700040EAD474B4420BD99DED081B9DED060BBE
:102E800002B0BDEC048B04B0BDE8704000F0A5B901
:102E9000ACF14054A4F17F641C430BD0022404EA3B
:102EA000AC7444EAD27405439FED578B9FED582BC9
:102EB00007D015E09DED060B51EC100B00F0A8F9C2
:102EC00042E0002C11BF012C9DED060B02B0BDECC1
:102ED000048B04BF04B070BD022C38D0032C3BD04F
:102EE0000B439FED4D1B9FED4E0B0AD0B14218D105
:102EF000B04209D121F0804120F080400991079033
:102F00000FE0002A15DA10E0474B7B44002C08BF85
:102F100093ED000B0DD0012C10D0022C17D0032CF8
:102F20001AD0B0421DD1002A03DAB0EE410AF0EE09
:102F3000610A02B0BDEC048B04B070BD93ED000BD0
:102F400051EC100B00F0D6F941EC100BF1E7B0EEAC
:102F5000480AF0EE680AECE7B0EE420AF0EE620AC8
:102F6000E7E7401A00159FED329B3C28C8BF8DED66
:102F7000000B17DCBCF1000FBCBF10F13C0F8DED56
:102F8000009B0FDB9DED080B53EC102B9DED060B0A
:102F900051EC100B00F06EFA00F042F900F038F935
:102FA000CDE90001B4B1012C10D0022C9FED220B11
:102FB00053EC102B9DED000B51EC100B19D000F0D1
:102FC0005FFE53EC182B00F05BFEBDE7019880F02C
:102FD000004001909DED000B53EC192B51EC100BB0
:102FE00000F0A0FB04BF0220FDF7ECF99DED000B03
:102FF0009FE700F045FE53EC182B00F069FDA3E7B6
:103000000000F07F00000000182D4454FB2109400F
:10301000182D4454FB2109C0182D4454FB21F9BF3D
:10302000182D4454FB21F93F0A1000000000000055
:103030000000000000000000075C143326A6A13C3D
:103040002DED020B019820F0004001909DED000B4A
:1030500002B0704700B52DED048BB0EE409AF0EE53
:10306000609A83B051EC190B00F03EFD41EC180B57
:1030700018EE100A18EE901A8DED008B002818BF7C
:103080000120084320F00040C0F17F6000F1E040E3
:10309000C00F14D019EE101A19EE900A8DED009B96
:1030A000002918BF0121084320F00040C0F17F60D3
:1030B00000F1E040C00F04BF0120FDF783F9B0EE3E
:1030C000480A03B0F0EE680ABDEC048B00BD70B591
:1030D00004462DED028B4D1E00EBC500B0EE408A7C
:1030E000F0EE608A90ED000B35F0060017D053EC3F
:1030F000182B51EC100B00F0B7FB41EC100B6D1EC0
:1031000004EBC50090ED001B51EC100B53EC112BA0
:1031100000F0FCF841EC100B35F00600E7D1022D71
:1031200036D0042D1CD0062D1CBFBDEC028B70BD0B
:1031300053EC182B51EC100B00F096FB94ED0A1B8E
:1031400053EC112B00F0E2F853EC182B00F08CFB41
:1031500094ED081B53EC112B00F0D8F841EC100B48
:1031600053EC182B51EC100B00F07EFB94ED061B7A
:1031700053EC112B00F0CAF853EC182B00F074FB41
:1031800094ED040B53EC102B00F0C0F841EC100B45
:1031900053EC182B51EC100B00F066FB94ED021B66
:1031A00053EC112B00F0B2F853EC182B00F05CFB41
:1031B00094ED001B53EC112B00F0A8F8BDEC028B32
:1031C00041EC100B70BD10B553EC102B51EC100BF3
:1031D00000F09CF841EC100B10BD10B553EC112B16
:1031E00051EC100B00F092F841EC100B10BD0000F8
:1031F0009FED050B10B553EC102B51EC100B00F0AC
:1032000033FB41EC100B10BD00000000000000106B
:1032100010B541EC100BFFF7A7FC51EC100B10BDE3
:1032200082B0CDE9000121F0004001909DED000B3E
:1032300002B051EC100B704708B5FDF785FEFFF7A3
:1032400077FAFFF715FA26480024016841F4800157
:1032500001600068224600F4800000902146392079
:10326000FDF7D2FE3920FDF7C1FE002211464520B0
:10327000FDF7CAFE4520FDF7B9FE1B48194901605C
:103280001A49C0E901144FF48041C0E90341446187
:103290008461C4610462FDF7C3FB08B172B6FEE746
:1032A000114813499C3001604FF4E131C0E9011429
:1032B0000C21C460C0E904418461C461FEF7B2FC22
:1032C00008B172B6FEE7FFF7F9F9FFF727F80648ED
:1032D0005430FEF70BFA4FF47A70FDF799FAFEE7D7
:1032E000303802400054004000010020801A0600DF
:1032F0000014014081F00041704780F000407047A9
:1033000021F00041704720F00040704710B591EA6D
:10331000030F48BF83F0004300F1BA84841A71EBB5
:10332000030C05D2121943EB0C03001B61EB0C01DB
:10333000DFF824E14FEA1154A4EB135C1EEA430FBB
:1033400018BF9EEA445F73D023EA0E03DCF1200E1F
:1033500021EA045143F4801332D322FA0CFE10EB1D
:103360000E0023FA0CFE41EB0E01CCF1200E03FA05
:103370000EFE10EB0E0051F10001B1F5801FCCF1F3
:10338000200E32D201EB045112FA0EF2BDE81040C9
:1033900058BF7047401C38BF5FEA420218BF7047F1
:1033A000002814BF20F0010041F100014FEA410361
:1033B00013F5001F38BF7047A1F1C04100F04CBBAE
:1033C000012A43EB0302ACF1200CDCF11F0E32BFEB
:1033D0004FF0000E23FA0CF310EB030041EB045105
:1033E000B4EB115FD0D0A1EB045101F58011490875
:1033F0005FEA300001EB04510ED350F1000038BFFA
:1034000012FA0EFE08D1BDE81040C9E7401C38BFD3
:103410005FEA4202CAD1C3E7BDE810404FEA410368
:1034200013F5001F38BF7047A1F1C04100F014BB75
:103430009EEA445F08D011EA5E0FBDE8104004BF69
:1034400001F0004100207047BDE8104070B500F069
:10345000B5FA00BF64FBBE3E0000E0FF491058BF54
:10346000C1F140415B1058BFC3F140438B42EFF3C1
:10347000008070472DE9C04130B4DFF8A0C23CEABB
:10348000111418BF3CEA131400F0EC8081EA030524
:103490001CEA111444EAD57418BF1CEA131500F095
:1034A000C780A4EB05044FF0004545EAC12145EA79
:1034B000C32341EA505143EA525304F17F749942C5
:1034C00004F500344FEAC0204FEAC22208BF904200
:1034D00000F09C804FEA13650FF24016765D4FEACC
:1034E000134506FB05F7C7F1807706FB07F74FEAA0
:1034F000D737A7FB03687642C8F58038A7FB06CE0E
:1035000038BFA8F1010807FB08E64FF0000EA6FB44
:10351000028CE6FB03CEDCF1000CCEF1004E38BF8E
:10352000AEF1010EA6FB0C584FF000074FF000055E
:10353000E6FB0E87A1FB08C6A0FB07CE16EB0E0626
:1035400045F10005E1FB076515F1E04E7EBFA4F5EE
:1035500080345FEA46066D4116F1800745F10005AB
:103560004FEA17274FEA066647EA0567A6F1DE46E7
:10357000B6F1805F4FEA15251FD9384624F0010CBB
:1035800005EBC471BCF1FE6F01EB0C1102D8F0BC6D
:10359000BDE8008124425CBF01F5801E9EEAC47F25
:1035A00002D4F0BCBDE80081244238D4F0BCA1F1C3
:1035B000C041BDE8004100F04FBA4FEAD22242EAD2
:1035C00043524FEAD323A7FB02864FEAD02040EABA
:1035D000415007FB03661EEA0E0F4FEAD12105FB9F
:1035E000026658BFA6EB0056B6EB00564FEA520EE5
:1035F0004EEAC37E18EB0E0E56EB530EBDD518EBFC
:1036000002085E417F1C55F10005B6E74FF48015B6
:103610004FF000074FF000064FF00008ADE7F0BC98
:103620004FF0000001F1C04101F00041BDE8008110
:1036300011EA0C1F0CEA131500D00CE013EA0C1F62
:1036400000F025804FF00000F0BC81EA030101F09A
:103650000041BDE80081F0BCBDE8004181EA030102
:1036600000F0FAB9F0BCBDE8004170B500F0A6F971
:10367000097EFC3E00F007B881EA03014FF000002C
:1036800001F00041704781EA030100F0E5B9F0BCA8
:10369000BDE800414FF0000021497047FFFDFBF9F4
:1036A000F7F5F4F2F0EEEDEBE9E8E6E4E3E1E0DE75
:1036B000DDDBDAD8D7D5D4D3D1D0CFCDCCCBCAC8E7
:1036C000C7C6C5C4C2C1C0BFBEBDBCBBBAB9B8B70E
:1036D000B6B5B4B3B2B1B0AFAEADACABAAA9A8A801
:1036E000A7A6A5A4A3A3A2A1A09F9F9E9D9C9C9BCF
:1036F0009A9999989797969595949393929191907A
:103700008F8F8E8E8D8C8C8B8B8A8989888887870A
:103710008685858484838382828181800000FF077F
:103720000000F87F51EA030C17D41CF5801F58BF26
:10373000BCF5801F00F10680994218BF704708BF92
:103740009042704707D711F5801F58BF13F5801FAF
:1037500019D499427047894270471CF5801F08D5DB
:10376000BCF5801FF7D58B4218BF704708BF824257
:1037700070474FF4001C1CEB410F38BF1CEB430F8C
:1037800001D28B42704770B500F018F992244900BD
:103790004FF000514FF08053FFF760BE10F0004231
:1037A00048BF4042B0FA80F310FA03F10AD0C3F1E7
:1037B0001D0303F580634FEA415002EB035202EB15
:1037C000D12170474FF000007047B0FA80F310FA33
:1037D00003F10AD0C3F11D0303F580634FEA4150A2
:1037E0004FEA035202EBD12170474FF000007047BF
:1037F00051EA030C17D41CF5801F58BFBCF5801F7D
:1038000000F10680994218BF704708BF9042704788
:1038100007D711F5801F58BF13F5801F19D499429F
:103820007047894270471CF5801F08D5BCF5801F82
:10383000F7D58B4218BF704708BF824270474FF4DC
:10384000001C1CEB410F38BF1CEB430F01D28B4215
:10385000704770B500F0B2F8922449004FF0005163
:103860004FF08053FFF7FABDDFF848C170B51CEA8E
:10387000111E1EBF1CEA13159EEA0C0F95EA0C0FD1
:1038800000F06F8081EA030423EA4C134EEAD47EF1
:1038900021EA4C1141F4801143F48013AE44A1FBA2
:1038A000024CA0FB0365AEF17F7E361955EB0C058B
:1038B000A1FB034C4CF10003A0FB021C16EB0C0611
:1038C000654153F10003094218BF46F0010613F4A5
:1038D000007F0BD14FEA03314FEA0530340341EA50
:1038E000155140EA16506FF003020AE04FEAC32177
:1038F0004FEAC520F40241EA555140EA56506FF0B4
:10390000020202EB2E4201EB025585EACE710AD08B
:103910005FEA440C18BF24F0004450F1000041F16C
:10392000000120EAD47040F2FE7C624500D270BDF6
:10393000A84214BF4FF080444FF04044002E08BF0F
:103940000024BEF1806FA8BFA1F1C041BDE8704066
:1039500080F282804FF0000001F1C04101F000418F
:1039600070479EEA0C0F0CEA131518BF95EA0C0F6E
:1039700006D04FF0000081EA030E0EF0004170BD4A
:1039800000F01CF88900013E00F007B800F009B80B
:103990004FEA430C5FEA5C5C08D081EA030100F067
:1039A0005BB84FEA410C5FEA5C5CF6D14FF0000077
:1039B000014970470000FF070000F87F0EF1020E7A
:1039C0002EF0030E5EF8046B364205D4012A43EB59
:1039D000030515F5001F12D8012841EB010C1CF559
:1039E000001F0CD80ED14FEAD17C15F5001F0CEB4F
:1039F0004C0C0CF1020C08BF4CEBD37C04E04FF0F4
:103A0000080C01E04FEAD37C0CEB4C0526FA05F6D6
:103A100006F00706B6F1040C06D20EEB860CBDE8E4
:103A200070404CF0010C6047DFE80CF0090B02021B
:103A30004FF000414FF00000A1F5002170BD194684
:103A40001046012851EB010418BFD4F5001484BFBF
:103A5000002001F0004170BD0808A0F500114FEAF8
:103A60003101704753EA010C17D41CF5801F58BF71
:103A7000BCF5801F00F106808B4218BF704708BF5D
:103A80008242704707D713F5801F58BF11F5801F7A
:103A900019D48B4270479B4270471CF5801F08D594
:103AA000BCF5801FF7D5994218BF704708BF9042F8
:103AB00070474FF4001C1CEB430F38BF1CEB410F49
:103AC00001D2994270470FB40CBC03BCFFF7C1BED2
:103AD00091EA030F10B581F000413FF51FAC83F070
:103AE000004300F0D5B800002DE9F04101F5801C3D
:103AF000BCF5001FC0F2A9804FEA115C21EA0C510D
:103B00000CF1FD0C41F480115FEA5C0C0CF5C07CFB
:103B100001D34000494130A4890241EA9051870213
:103B20008E0E0A0CA45D04FB04F602FB06F6C6F139
:103B30004046A4FB0662F60D46EA422606FB06F462
:103B4000A4FB01235242C3F1404338BF5B1EA6FBD6
:103B500002420024E6FB0324D20B42EA4446A6FBC1
:103B60000623A1FB02E2A3FB07E4E3FB61426442FC
:103B7000C2F1404E38BFAEF1010EA6FB04234FF058
:103B80000002E6FB0E32A2FB03463400E2FB626455
:103B9000A1FB06E6A4FB07E8E4FB61687642C8F1F6
:103BA000405838BFA8F10108A2FB06E4A3FB08E5D2
:103BB000E2FB6854A1FB05E6A7FB04E8E1FB648691
:103BC00018F1200556F10006A809A8F11B08B10953
:103BD00008F03F08B8F10A0F40EA86601CD901EBF3
:103BE0000C51BDE8F08100BFFCF5EEE8E2DDD8D372
:103BF000CFCBC7C3C0BDB9B6B4B1AEACA9A7A5A35E
:103C0000A19F9D9B9A9896959392908F8D8C8B896E
:103C10008887868584838281A0FB006800FB01F28F
:103C200008EB4208B8EB872807D5341858EB010495
:103C3000D5D5401C51F10001D1E7341A78EB0104CD
:103C4000CDD4401E71F10001C9E75FEA4C0C5FEA78
:103C50009C5C0DD105D34FF0000001F00041BDE8A0
:103C6000F081BDE8F04170B5FFF7A8FE6DDBFFBE47
:103C7000BDE8F0414FF00000004970470000F87FB8
:103C800010B591EA030F48BF83F000433FF546AB00
:103C9000841A71EB030C07D212198CF0004C43EB21
:103CA0000C03001B61EB0C01DFF8A4E14FEA115497
:103CB000A4EB135C1EEA430F18BF9EEA445F00F0BA
:103CC000B08023EA6E03524221EA0451C3EB6E0333
:103CD00038BF5B1EDCF1200E25D322FA0CFE10EB60
:103CE0000E0043FA0CFE41EB0E01CCF1200E03FA5C
:103CF0000EFE10EB0E0051F10001CCF1200E29D484
:103D000012FA0EF201EB0451BDE8104058BF7047A3
:103D1000401C1CBFB2F1004F704700280CBF491C6B
:103D200020F00100704712EB020E43EB030218BFB4
:103D30004FF0010E4EEA4202ACF1200CDCF11E0EF7
:103D400054D943FA0CFE10EB0E0051F1FF31CCF1C7
:103D50001E0ED5D50EF1010E12FA0EFE404141EBBA
:103D6000010101EB445C5FEA5C5C10D910EBDE7092
:103D700001EB045138BFBEF1004FBDE8104018BF41
:103D8000704700280CBF491C20F00100704730D25A
:103D90004FEAD42C11F5001124F400641BD0B1FAC1
:103DA00081F20B3AA41AA41ED2F12003914030FAFA
:103DB00003F31943904001EBCC71002C01EB04514B
:103DC000BDE81040A8BF704701F1C0414FF00000AE
:103DD00001F000417047B0FA80F310FA03F100D10E
:103DE00010BDE41A173C4805C90AE4E701EB045189
:103DF00010BD491001EB0451BDE810404FEA3000FE
:103E000002E04FF0000170474A0008BF0042F8D0BE
:103E1000B2F5001F28BF704701F000414FF00000CD
:103E200070479EEA445F07D011EA5E0FBDE810407C
:103E300004BF002100207047BDE8104070B5FFF7B7
:103E4000BDFD00BF40DFF63E83F0004110467047E5
:103E50000000E0FF4FF04070E1EE100A70470006EE
:103E600010160006101600000000000000000102FD
:103E70000304060708090000000001020304000013
:103E80004FBB610567ACDD3F182D4454FB21E93F72
:103E90009BF681D20B73EF3F182D4454FB21F93F61
:103EA000E2652F227F2B7A3C075C143326A6813CE7
:103EB000BDCBF07A8807703C075C143326A6913C92
:103EC000C4EB98999999C9BF711623FEC671BCBFFE
:103ED0006D9A74AFF2B0B3BF9AFDDE522DDEADBF66
:103EE0002F6C6A2C44B4A2BF0D5555555555D53F7E
:103EF000FF8300922449C23F6E204CC5CD45B73F99
:103F0000513DD0A0660DB13FEB0D76244B7BA93F10
:103F100011DA22E33AAD903F0000000000000000FB
:103F2000403F000800000020A8000000D401000865
:103F3000E83F0008A800002058080000F001000831
:103F40000000000000000000000000E04D62503F53
:103F5000000000C07493683F000000E051B89E3F2D
:103F60000000000000000000000000000000000051
:103F70000000000000000000000000000000000041
:103F80000000000000000000000000000000000031
:103F9000000000E04D62503F000000C07493683F95
:103FA000000000E051B89E3F00000000000000004B
:103FB0000000000000000000000000000000000001
:103FC00000000000000000000000000000000000F1
:103FD00000000000000000000100000010000000D0
:083FE000000000000024F400C1
:040000050800019955
:00000001FF
